:020000040000FA
:06000000C9EF07F0120039
:020006001200E6
:06000800D2EF03F012002C
:02000E000100EF
:0C001000AE0F0000C40100001000000052
:04001C00D9CFE6FF53
:10002000E1CFD9FF080EE126DE6ADD6AFD0EDBCFE7
:10003000E9FFFE0EDBCFEAFF060EEECFDBFF070E79
:10004000EDCFDBFFD950FB0FE96EFF0EDA20EA6E31
:10005000EE50ED1001E11FD1D950060FE96EDACF55
:10006000EAFFEE50ED1042E1F90EDBCF0DF0FA0E93
:10007000DBCF0EF0060EDBCFE6FF070EDBCFE6FF91
:10008000FB0EDBCFE6FFFC0EDBCFE6FF04D00EC09D
:10009000FAFF0D50F96EFBDFE552E552E552E552ED
:1000A000F4CF0CF0010EF31801E0F5D00C5001E094
:1000B000F2D0FD0EDBCFE9FFFE0EDBCFEAFFFB0E39
:1000C000DBCFEEFFFC0EDBCFEDFFFD0EDBCFE9FF5C
:1000D000FE0EDBCFEAFF020EE926000EEA22FB0E3F
:1000E000DBCFEEFFFC0EDBCFEDFFD5D0D950060FF6
:1000F000E96EDACFEAFFEE50ED1001E1CCD0D95035
:10010000060FE96EDACFEAFFEE50ED1001E1C3D041
:10011000F90EDBCF0DF0FA0EDBCF0EF0060EDBCFC3
:10012000E6FF070EDBCFE6FFFB0EDBCFE6FFFC0EA4
:10013000DBCFE6FF04D00EC0FAFF0D50F96EFBDFF7
:10014000E552E552E552E552F3CF0BF0F4CF0CF057
:10015000010EF31835E10C5033E1060EDBCF06F04B
:10016000070EDBCF07F0020E06C0DBFF030E07C051
:10017000DBFFDECF0BF0DDCF0CF00C340AE20B50CE
:100180000008000E0C5405E2040EDBCFE9FF050E5B
:1001900004D0FD0EDBCFE9FFFE0EDBCFEAFFFB0E46
:1001A000DBCFEEFFFC0EDBCFEDFFFB0EDBCFE9FF7D
:1001B000FC0EDBCFEAFF020EDBCFEEFF030E46D0D4
:1001C000F90EDBCF0DF0FA0EDBCF0EF0060EDBCF13
:1001D000E6FF070EDBCFE6FFFB0EDBCFE6FFFC0EF4
:1001E000DBCFE6FF04D00EC0FAFF0D50F96EFBDF47
:1001F000E552E552E552E552F3CF0BF0F4CF0CF0A7
:10020000F350F41042E1060EDBCFE9FF070EDBCF1F
:10021000EAFFEE50ED1021E1060EDBCFE9FF070EFD
:10022000DBCFEAFFFB0EDBCFEEFFFC0EDBCFEDFFFB
:10023000FD0EDBCFE9FFFE0EDBCFEAFF020EE92663
:10024000000EEA22FB0EDBCFEEFFFC0EDBCFEDFF54
:10025000060EDB6A070EDB6A18D0060EDBCF06F04F
:10026000070EDBCF07F0040E06C0DBFF050E07C04C
:10027000DBFF060EDBCFE9FF070EDBCFEAFF060E42
:10028000EECFDBFF070EEDCFDBFFDF2A010E01E231
:1002900036D7DB2A34D7080EE15C02E2E16AE55288
:1002A000E16EE552E7CFD9FF1200D9CFE6FFF36A3E
:1002B000F46AE552E7CFD9FF1200D9CFE6FFE1CFCC
:1002C000D9FF020EE126FD0EDBCFE9FFFE0EDBCFEC
:1002D000EAFFEECFDEFFEDCFDDFFD9CFE9FFDACFCA
:1002E000EAFFEE50ED102BE0DECFE9FFDDCFEAFFB5
:1002F000EECF0BF0EFCF0CF0FD0EDBCFE9FFFE0EE3
:10030000DBCFEAFF0BC0EEFF0CC0EDFFDECFE9FF55
:10031000DDCFEAFFEE50ED100CE1FD0EDBCFE9FF83
:10032000FE0EDBCFEAFF020EE926000EEA22EE6A9D
:10033000ED6ADECFE9FFDDCFEAFFEE6AED6ADECFE0
:100340000BF0DDCF0CF00BC0F3FF0CC0F4FF020E7E
:10035000E15C02E2E16AE552E16EE552E7CFD9FFE6
:02036000120089
:0E036200D9CFE6FFE1CFD9FFFE0EDBCFE9FFDA
:10037000EA6AE9BEEA68C40EE926010EEA22EF50F5
:10038000E66E68EC07F0E552E552E7CFD9FF1200C0
:10039000D9CFE6FFE1CFD9FFFD0EDBCFE9FFFE0E9F
:1003A000DBCFEAFF040EE926000EEA22EF6AFD0E1B
:1003B000DBCFE9FFFE0EDBCFEAFFEE6AEE6AEE6A04
:1003C000EE6AFD0EDBCFE9FFFE0EDBCFEAFF050E86
:1003D000EB6A060EEB6AE552E7CFD9FF1200800EFA
:1003E000E66E030EE66EE66AEEEC06F0E552E552C6
:1003F000E552959083801200D9CFE6FFE1CFD9FF77
:10040000FD0EDBCFE9FFFE0EDBCFEAFF040EE9268F
:10041000000EEA22EF50010A41E0010A01E0C4D0D7
:10042000DEDFFD0EDBCFE9FFFE0EDBCFEAFF050EC0
:10043000EB6A060EEB6AA4EC04F004C00BF005C0F6
:100440000CF006C00DF007C00EF0FD0EDBCFE9FF8B
:10045000FE0EDBCFEAFF04C0EEFF0CC0EEFF0DC0C6
:10046000EEFF0EC0EEFFFD0EDBCFE9FFFE0EDBCF91
:10047000EAFF040EE926000EEA22010EEF6EFD0EE1
:10048000DBCFE9FFFE0EDBCFEAFF050EE926000E0B
:10049000EA22EF50E66E65DFE55286D0FD0EDBCF37
:1004A000E9FFFE0EDBCFEAFFEECF0FF0EECF10F04C
:1004B000EECF11F0EFCF12F00FC0E6FF10C0E6FF55
:1004C00011C0E6FF12C0E6FFA4EC04F0E552E7CF4E
:1004D00012F0E552E7CF11F0E552E7CF10F0E55208
:1004E000E7CF0FF000010F50045C0B6E1050055861
:1004F0000C6E115006580D6E125007580E6EE80E15
:100500000B1839E1010E0C1836E10D5034E10E5094
:1005100032E1A4EC04F004C00BF005C00CF006C0FE
:100520000DF007C00EF0FD0EDBCFE9FFFE0EDBCFB6
:10053000EAFF04C0EEFF0CC0EEFF0DC0EEFF0EC0E0
:10054000EEFFFD0EDBCFE9FFFE0EDBCFEAFF050E6F
:10055000E926000EEA22EF50E66E03DFE552FD0EBB
:10056000DBCFE9FFFE0EDBCFEAFF050EE926000E2A
:10057000EA22EE2AED22FD0EDBCFE9FFFE0EDBCFF5
:10058000EAFF050EE926000EEA22100EEE180CE135
:10059000ED500AE1FD0EDBCFE9FFFE0EDBCFEAFFF7
:1005A000050EEB6A060EEB6AE552E7CFD9FF1200A3
:1005B000D9CFE6FFE1CFD9FFFB0EDBCF0BF0FC0E6E
:1005C000DBCF0CF00A0E0C02F3CF0CF00B02F45050
:1005D0000C26FD0EDB50F324E96EFE0EDB500C20E2
:1005E000EA6EEE6AED6AFB0EDBCF0BF0FC0EDBCFA2
:1005F0000CF00A0E0C02F3CF0CF00B02F3CF0BF051
:10060000F4500C26FD0EDB50F324E96EFE0EDB5099
:100610000C20EA6E020EE926000EEA22EF6AFB0EBB
:10062000DBCF0BF0FC0EDBCF0CF00A0E0C02F3CF8D
:100630000CF00B02F3CF0BF0F4500C26FD0EDB5048
:10064000F324E96EFE0EDB500C20EA6E040EE92660
:10065000000EEA22F90EDBCFEEFFFA0EDBCFEDFF44
:10066000FB0EDBCF0BF0FC0EDBCF0CF00A0E0C0206
:10067000F3CF0CF00B02F3CF0BF0F4500C26FD0E71
:10068000DB50F324E96EFE0EDB500C20EA6E030E05
:10069000E926000EEA22FB0EDBCFEFFFF80EE66E36
:1006A0000A0EE66EFB0EDBCF0BF0FC0EDBCF0CF080
:1006B0000A0E0C02F3CF0CF00B02F3CF0BF0F45048
:1006C0000C26020E0B26010E0C220BC0E6FF0CC0FE
:1006D000E6FF200EE66E010EE66E0EEC00F00D6EEB
:1006E000060EE15E0D50E552E7CFD9FF1200D9CFDB
:1006F000E6FFE1CFD9FF020EE126DE6ADD6ADF2ADE
:10070000010EFDE3DB2AFBD7D9CFE6FFE1CFD9FF0E
:10071000020EE126DE68DD68DF06010EFDE2DB0683
:10072000FBD70101206B216B226B236B020E006F44
:10073000010E016F00C1E9FFEA6EEE6AED6A00C1C9
:10074000E9FF01C1EAFF020EE926000EEA22EF6A84
:1007500000C1E9FF01C1EAFF030EE926000EEA220B
:10076000EF6AEE0EE66E060EE66E010EE66EE66AC5
:10077000020EE66E010EE66E1BDF0B6E060EE15EEC
:100780000B50080EE66E070EE66E020EE66EE66A87
:10079000020EE66E010EE66E0BDF0B6E060EE15EDC
:0407A0000B501200E8
:0C07A400D8CFE4FFE0CFE4FFE46EDACF32
:1007B000E4FFE2CFDAFFE9CFE4FFEACFE4FFF6CFD0
:1007C000E4FFF7CFE4FFF5CFE4FFF3CFE4FFF4CF8E
:1007D000E4FFFACFE4FF00EE00F00B0EE80403E3C1
:1007E000EECFE4FFFBD700EE0BF0080EE80403E3C6
:1007F000EECFE4FFFBD7E652D9CFE6FFE1CFD9FF3A
:10080000020EE126FECFDBF1FDCFDCF10101D42B9E
:10081000000ED523D623D723A5D8DBC113F013C0F0
:1008200014F0136A0101DC5101011310DD6F14C0D3
:10083000DEF100C1E9FF01C1EAFF040EDDC1EBFFFB
:10084000050EDEC1EBFF200EE66E010EE66E5DECDE
:1008500001F0E552E552F3CFDEFFF4CFDDFFF80EF5
:10086000E66E0A0EE66E00C1E6FF01C1E6FF200E4D
:10087000E66E010EE66E0EEC00F0136E060EE15E03
:100880001350DECF00F1DDCF01F100C1E9FF01C15E
:10089000EAFF040EE926000EEA22EFCFDCF100C1E8
:1008A000E9FF01C1EAFF040EE926000EEA22EECFBD
:1008B00013F0EFCF14F014C013F0146A13C0DBF17F
:1008C000DBC1E8FFFE6EDCC1E8FFFD6E020EE15CFD
:1008D00002E2E16AE552E16EE552E7CFD9FFE55267
:1008E00000EE12F0080EE80403E3E5CFEDFFFBD7BE
:1008F00000EE0AF00B0EE80403E3E5CFEDFFFBD7B3
:10090000E5CFFAFFE5CFF4FFE5CFF3FFE5CFF5FF45
:10091000E5CFF7FFE5CFF6FFE5CFEAFFE5CFE9FF4B
:10092000E5CFDAFFE550E5CFE0FFE5CFD8FF1000D7
:100930000101D46BD56BD66BD76BF28ED20EE66EFF
:1009400086EC07F0E5521200D4C104F0D5C105F0E1
:10095000D6C106F0D7C107F01200F250040B01E037
:08096000010E1200F2941200D6
:08096800D9CFE6FFE552E7CF0D
:10097000D9FF1200D9CFE6FFE1CFD9FFFD0EDBCFC3
:10098000E9FFFE0EDBCFEAFFEECF0BF0EFCF0CF06E
:10099000230E0B1801E10C5012E00B5001E0A8D01F
:1009A0000C5001E0A5D0FD0EDBCFE9FFFE0EDBCF42
:1009B000EAFF020EE926000EEA22020EEF6EFD0E9D
:1009C000DBCFE9FFFE0EDBCFEAFF030EE926000EC8
:1009D000EA22EECF0FF0EECF10F0EECF11F0EFCF16
:1009E00012F00FC0E6FF10C0E6FF11C0E6FF12C014
:1009F000E6FFA4EC04F0E552E7CF12F0E552E7CFB2
:100A000011F0E552E7CF10F0E552E7CF0FF000010B
:100A10000F50045C0B6E105005580C6E11500658A8
:100A20000D6E125007580E6E930E0B5C000E0C5894
:100A3000000E0D58000E0E5852E3FD0EDBCFE9FFFD
:100A4000FE0EDBCFEAFF020EE926000EEA22EF508F
:100A500002080FE1FD0EDBCFE9FFFE0EDBCFEAFF60
:100A6000020EE926000EEA22010EEF6EECEC06F013
:100A70001AD0FD0EDBCFE9FFFE0EDBCFEAFF020E40
:100A8000E926000EEA22EF040EE1FD0EDBCFE9FFBE
:100A9000FE0EDBCFEAFF020EE926000EEA22020E6E
:100AA000EF6EEAEC06F0A4EC04F004C00BF005C015
:100AB0000CF006C00DF007C00EF0FD0EDBCFE9FF15
:100AC000FE0EDBCFEAFF030EE926000EEA2204C089
:100AD000EEFF0CC0EEFF0DC0EEFF0EC0EEFFFD0EF0
:100AE000DBCFE9FFFE0EDBCFEAFF230EEE6EED6AF1
:080AF000E552E7CFD9FF120027
:080AF800D9CFE6FFE1CFD9FFE1
:100B0000040EE126FD0EDBCFDEFFDBCFDDFFFB0EAB
:100B1000DBCF06F0FC0EDBCF07F0020E06C0DBFFDA
:100B2000030E07C0DBFFD9CFE9FFDACFEAFFEE50B3
:100B3000ED1008E0D950020FE96EDACFEAFFEE506F
:100B4000ED1026E0D9CFE9FFDACFEAFFEE50ED1045
:100B500051E0D950020FE96EDACFEAFFEE50ED1006
:100B600049E0DECFE9FFDDCFEAFF020EE926000E05
:100B7000EA22EFCF0BF0020EDBCFE9FF030EDBCF53
:100B8000EAFF020EE926000EEA22EF500B5C03E2B8
:100B9000010EF36E32D0DECFE9FFDDCFEAFF020EA9
:100BA000E926000EEA22EFCF0BF0020EDBCFE9FFC1
:100BB000030EDBCFEAFF020EE926000EEA22EF5019
:100BC0000B5C18E0DECFE9FFDDCFEAFF020EE9267D
:100BD000000EEA22EFCF0BF0020EDBCFE9FF030E8F
:100BE000DBCFEAFF020EE926000EEA22EF50D880A2
:100BF0000B5402E2F36A01D0F36AF46A040EE15C7A
:100C000002E2E16AE552E16EE552E7CFD9FF120058
:100C1000D9CFE6FFE1CFD9FFFD0EDBCFE9FFFE0E16
:100C2000DBCFEAFFEF6AFD0EDBCFE9FFFE0EDBCF85
:100C3000EAFFEE52300EEF6EE552E7CFD9FF120019
:100C4000D9CFE6FFE1CFD9FFFD0EDBCFE9FFFE0EE6
:100C5000DBCFEAFFEF50010A1AE0010A2DE19EAA5C
:100C60002BD049EC07F0E66EFD0EDBCFE9FFFE0E60
:100C7000DBCFEAFFEE52E552E750EF6EFD0EDBCF21
:100C8000E9FFFE0EDBCFEAFF010EEF6E15D0ACA23E
:100C900013D0FD0EDBCFE9FFFE0EDBCFEAFFEF6ADC
:100CA000FD0EDBCFE9FFFE0EDBCFEAFFEE52EF5089
:100CB000E66EA2EC07F0E552E552E7CFD9FF12004D
:100CC0000E0EF66E000EF76E000EF86E01010900B2
:100CD000F550E46F0900F550E56F03E1E46701D0DA
:100CE0003DD00900F550DF6F0900F550E06F0900B5
:100CF000F550E16F09000900F550E96E0900F55063
:100D0000EA6E090009000900F550E26F0900F5508C
:100D1000E36F09000900F6CFE6F1F7CFE7F1F8CF6E
:100D2000E8F1DFC1F6FFE0C1F7FFE1C1F8FF010123
:100D3000E25302E1E35307E00900F550EE6EE207EB
:100D4000F8E2E307F9D7E6C1F6FFE7C1F7FFE8C12C
:0E0D5000F8FF0101E407000EE55BBFD71200BB
:020D5E00D9CFEB
:100D6000E6FFE1CFD9FF040EE126DE6ADE6ADE6A25
:100D7000DD6ADD52DD52FD0EDBCF0BF0FE0EDBCF68
:100D80000CF00D6A0E6A0CAE02D00D680E68D9CF59
:100D9000E9FFDACFEAFF0B50EE5C0C50EE580D5035
:100DA000EE580E50EE580AE2D9CFE9FFDACFEAFF4B
:100DB000EE2A000EEE22EE22EE22DDD7040EE15CDA
:100DC00002E2E16AE552E16EE552E7CFD9FF120097
:0C0DD000949012008280120082901200A9
:040DDC00D9CFE6FF86
:100DE000DACFE6FFE1CFD9FFE2CFDAFF3F0EC71639
:100DF000C66AFD0EDB50C612FB0EDB50C712FC0E9E
:100E0000DB50030A09E0010A04E0020A06E1C78C8C
:100E100004D0C78CC68801D0C688FD0EDB50050AF9
:100E200005E0010A05E19486928A03D0948601D0F8
:100E300094969488949AC68AE552E5CFDAFFE7CF74
:040E4000D9FF1200C4
:0C0E4400D9CFE6FFE1CFD9FF020EE12676
:100E5000FD0EDBCFE6FFFE0EDB50E552E7240B6E06
:100E60000C6A0BBE0C680BC0DEFF0CC0DDFFDF5050
:100E70000B6E020EE15C02E2E16AE552E16E0B509C
:100E8000E552E7CFD9FF120091EC03F098EC04F0A3
:020E9000FFD78A
:0E0E9200D9CFE6FFDACFE6FFE1CFD9FFE2CFFE
:100EA000DAFFE652F20E0101E917ABAC03D0E9918B
:100EB000ABB0E981ABB4E985ABB2E987AE50DF6E88
:100EC000DF50E552E552E5CFDAFFE7CFD9FF120058
:100ED000D9CFE6FFDACFE6FFE1CFD9FFE2CFDAFFE5
:100EE000E652C950DF6E9E96C69EFD0EDB50C96E5F
:100EF000C6AE02D0FF0E03D09EA6FED7000EE5526E
:0C0F0000E552E5CFDAFFE7CFD9FF120081
:040F0C00D9CFE6FF54
:100F1000DACFE6FFE1CFD9FFE2CFDAFFFD0EDB50FB
:100F20007F0BD56ED76AD66AF294FD0EDBAE02D087
:100F3000F28A01D0F29AD58EE552E5CFDAFFE7CFFB
:040F4000D9FF1200C3
:0C0F4400D9CFE6FFDACFE6FFE1CFD9FFFE
:100F5000E2CFDAFFACAC04D0AC900101E9B3AC80D5
:100F6000FD0EDB50AD6EE552E5CFDAFFE7CFD9FFDE
:020F700012006D
:0E0F7200000EF36E00EE00F0060E01D8120025
:100F8000EA6002D0EE6AFCD7F350E9601200EE6A24
:020F9000FCD78C
:0E0F920015EE00F025EE00F0F86A0A9C60EC07
:0E0FA00006F003EC00F044EC07F0FBD7120063
:020FAE00774189
:0E0FB0003B6B4D6E7E437F6F5F7C38793E1E3B
:020000040030CA
:0100010038C6
:01000200FEFF
:01000300FEFE
:010006003BBE
:00000001FF
