:020000040000FA
:06000000CBEF04F012003A
:020006001200E6
:060008007DEF02F0120082
:02000E000100EF
:0C001000B2090000800000001000000099
:04001C00D9CFE6FF53
:10002000E1CFD9FFFE0EDBCFE9FFEA6AE9BEEA685D
:10003000800EE926000EEA22EF50E66E6AEC04F02C
:10004000E552E552E7CFD9FF1200D9CFE6FFE1CF65
:10005000D9FFFD0EDBCFE9FFFE0EDBCFEAFF040E7A
:10006000E926000EEA22EF6AFD0EDBCFE9FFFE0E65
:10007000DBCFEAFFEE6AEE6AEE6AEE6AFD0EDBCFD8
:10008000E9FFFE0EDBCFEAFF050EEB6A060EEB6A18
:10009000E552E7CFD9FF1200800EE66E030EE66E42
:1000A000E66A17EC04F0E552E552E552959083803C
:1000B0001200D9CFE6FFE1CFD9FFFD0EDBCFE9FF7C
:1000C000FE0EDBCFEAFF040EE926000EEA22EF5017
:1000D000010A41E0010A01E0C4D0DEDFFD0EDBCF02
:1000E000E9FFFE0EDBCFEAFF050EEB6A060EEB6AB8
:1000F000E3EC02F004C00BF005C00CF006C00DF0FC
:1001000007C00EF0FD0EDBCFE9FFFE0EDBCFEAFFEE
:1001100004C0EEFF0CC0EEFF0DC0EEFF0EC0EEFF00
:10012000FD0EDBCFE9FFFE0EDBCFEAFF040EE92672
:10013000000EEA22010EEF6EFD0EDBCFE9FFFE0E90
:10014000DBCFEAFF050EE926000EEA22EF50E66E4D
:1001500065DFE55286D0FD0EDBCFE9FFFE0EDBCF7B
:10016000EAFFEECF0FF0EECF10F0EECF11F0EFCFB1
:1001700012F00FC0E6FF10C0E6FF11C0E6FF12C08C
:10018000E6FFE3EC02F0E552E7CF12F0E552E7CFED
:1001900011F0E552E7CF10F0E552E7CF0FF0000184
:1001A0000F50045C0B6E105005580C6E1150065821
:1001B0000D6E125007580E6EE80E0B1839E1010E45
:1001C0000C1836E10D5034E10E5032E1E3EC02F050
:1001D00004C00BF005C00CF006C00DF007C00EF017
:1001E000FD0EDBCFE9FFFE0EDBCFEAFF04C0EEFF22
:1001F0000CC0EEFF0DC0EEFF0EC0EEFFFD0EDBCF1C
:10020000E9FFFE0EDBCFEAFF050EE926000EEA222B
:10021000EF50E66E03DFE552FD0EDBCFE9FFFE0E89
:10022000DBCFEAFF050EE926000EEA22EE2AED22D8
:10023000FD0EDBCFE9FFFE0EDBCFEAFF050EE92660
:10024000000EEA22100EEE180CE1ED500AE1FD0E50
:10025000DBCFE9FFFE0EDBCFEAFF050EEB6A060EF1
:0A026000EB6AE552E7CFD9FF120068
:06026A00D9CFE6FFE552CA
:10027000E7CFD9FF1200D9CFE6FFE1CFD9FFFD0EBE
:10028000DBCFE9FFFE0EDBCFEAFFEECF0BF0EFCFC7
:100290000CF0230E0B1801E10C5012E00B5001E0A2
:1002A000A8D00C5001E0A5D0FD0EDBCFE9FFFE0E7B
:1002B000DBCFEAFF020EE926000EEA22020EEF6E05
:1002C000FD0EDBCFE9FFFE0EDBCFEAFF030EE926D2
:1002D000000EEA22EECF0FF0EECF10F0EECF11F0CD
:1002E000EFCF12F00FC0E6FF10C0E6FF11C0E6FF2F
:1002F00012C0E6FFE3EC02F0E552E7CF12F0E55260
:10030000E7CF11F0E552E7CF10F0E552E7CF0FF05D
:1003100000010F50045C0B6E105005580C6E11500C
:1003200006580D6E125007580E6E930E0B5C000EA1
:100330000C58000E0D58000E0E5852E3FD0EDBCF88
:10034000E9FFFE0EDBCFEAFF020EE926000EEA22ED
:10035000EF5002080FE1FD0EDBCFE9FFFE0EDBCF11
:10036000EAFF020EE926000EEA22010EEF6E15ECFE
:1003700004F01AD0FD0EDBCFE9FFFE0EDBCFEAFF63
:10038000020EE926000EEA22EF040EE1FD0EDBCF9D
:10039000E9FFFE0EDBCFEAFF020EE926000EEA229D
:1003A000020EEF6E13EC04F0E3EC02F004C00BF06D
:1003B00005C00CF006C00DF007C00EF0FD0EDBCF3F
:1003C000E9FFFE0EDBCFEAFF030EE926000EEA226C
:1003D00004C0EEFF0CC0EEFF0DC0EEFF0EC0EEFF3E
:1003E000FD0EDBCFE9FFFE0EDBCFEAFF230EEE6E44
:0A03F000ED6AE552E7CFD9FF1200D5
:0603FA004F0EAB16AC9A99
:10040000CF0E9D16C69A1200D9CFE6FFE1CFD9FFD5
:10041000020EE126FD0EDBCFE6FFFE0EDB50E552BD
:10042000E7240B6E0C6A0BBE0C680BC0DEFF0CC021
:10043000DDFFDF500B6E020EE15C02E2E16AE55285
:10044000E16E0B50E552E7CFD9FF1200D9CFE6FF9E
:10045000E1CFD9FF100EE126020EE66E050EE66E24
:10046000D3DFE552E5528F0ED3147009D36E330EED
:10047000E66EE66A3C0EE66E93EC03F0E552E5525A
:10048000E55211EC04F0D7EC02F0D9CFE6FFDACF59
:10049000E6FFECEC02F0E552E552020EDB6A030ED9
:1004A000DB6AD950090FE66E000EDA20E66E25EC05
:1004B00000F0E552E552D9CFE6FFDACFE6FF04ECD3
:1004C00003F0E552E552D950020FE66E000EDA2035
:1004D000E66E3BEC01F0E552E552D950090FE66EAD
:0C04E000000EDA20E66E59EC00F0E3D7C5
:0404EC00F250040BBB
:1004F00001E0010E1200F2941200DACFE4FFE2CF25
:10050000DAFFE9CFE4FFEACFE4FFF6CFE4FFF7CF6D
:10051000E4FFF5CFE4FFF3CFE4FFF4CFE4FFFACF3D
:10052000E4FF00EE00F00B0EE80403E3EECFE4FF7F
:10053000FBD700EE0BF0080EE80403E3EECFE4FF78
:10054000FBD7E652E8CF9EF0D8CFA0F0E0CF9FF0E7
:10055000FECFA1F0FDCFA2F000019A2B000E9B234D
:100560009C239D23C8DFE55200EE12F0080EE8043C
:1005700003E3E5CFEDFFFBD700EE0AF00B0EE80436
:1005800003E3E5CFEDFFFBD7E5CFFAFFE5CFF4FFBF
:10059000E5CFF3FFE5CFF5FFE5CFF7FFE5CFF6FFBA
:1005A000E5CFEAFFE5CFE9FFE5CFDAFF1100000173
:1005B0009A6B9B6B9C6B9D6BF28ED20EE66E88ECF9
:1005C00004F0E55212009AC004F09BC005F09CC0F4
:0805D00006F09DC007F01200C7
:0805D800D9CFE6FFE1CFD9FF06
:1005E000FD0EDBCFE9FFFE0EDBCFEAFFEF6AFD0E6B
:1005F000DBCFE9FFFE0EDBCFEAFFEE52300EEF6EEF
:10060000E552E7CFD9FF1200D9CFE6FFE1CFD9FFFE
:10061000FD0EDBCFE9FFFE0EDBCFEAFFEF50010A54
:100620001AE0010A2DE19EAA2BD04BEC04F0E66EF5
:10063000FD0EDBCFE9FFFE0EDBCFEAFFEE52E55207
:10064000E750EF6EFD0EDBCFE9FFFE0EDBCFEAFFDA
:10065000010EEF6E15D0ACA213D0FD0EDBCFE9FF7B
:10066000FE0EDBCFEAFFEF6AFD0EDBCFE9FFFE0EE9
:10067000DBCFEAFFEE52EF50E66EA4EC04F0E55259
:08068000E552E7CFD9FF12009B
:080688000E0EF66E000EF76E77
:10069000000EF86E00010900F550956F0900F55045
:1006A000966F03E1956701D03DD00900F550906F3A
:1006B0000900F550916F0900F550926F090009008B
:1006C000F550E96E0900F550EA6E090009000900CD
:1006D000F550936F0900F550946F09000900F6CFAB
:1006E00097F0F7CF98F0F8CF99F090C0F6FF91C04F
:1006F000F7FF92C0F8FF0001935302E1945307E023
:100700000900F550EE6E9307F8E29407F9D797C009
:10071000F6FF98C0F7FF99C0F8FF00019507000E9B
:06072000965BBFD712003A
:0A072600D9CFE6FFDACFE6FFE1CFFE
:10073000D9FFE2CFDAFFAC6AAB6AFD0EDBB0AC8862
:10074000DBA202D0AC8CAB8CDBB4AC8EDBA602D0CF
:10075000AB8801D0AB8ADBB8AC849E98DBBAAB86A1
:10076000DBAC02D09D8A01D09D9A9E9ADBAE02D06E
:100770009D8801D09D98FB0EDB50AF6EFB0EFC0EEA
:10078000DBCF0CF00CC00BF00C6A0B50B06EAC8AD7
:10079000AB8E949C948EAC50100B04E0AC50800B4C
:1007A00001E1948CE552E5CFDAFFE7CFD9FF1200E3
:1007B000D9CFE6FFE1CFD9FF040EE126DE6ADE6A7B
:1007C000DE6ADD6ADD52DD52FD0EDBCF0BF0FE0E80
:1007D000DBCF0CF00D6A0E6A0CAE02D00D680E680D
:1007E000D9CFE9FFDACFEAFF0B50EE5C0C50EE58A0
:1007F0000D50EE580E50EE580AE2D9CFE9FFDACF8D
:10080000EAFFEE2A000EEE22EE22EE22DDD7040EE3
:10081000E15C02E2E16AE552E16EE552E7CFD9FF21
:0E08200012009490120082801200829012004A
:02082E00D9CF20
:10083000E6FFDACFE6FFE1CFD9FFE2CFDAFF3F0EE6
:10084000C716C66AFD0EDB50C612FB0EDB50C71280
:10085000FC0EDB50030A09E0010A04E0020A06E18B
:10086000C78C04D0C78CC68801D0C688FD0EDB506B
:10087000050A05E0010A05E19486928A03D0948670
:1008800001D094969488949AC68AE552E5CFDAFF0F
:06089000E7CFD9FF1200C2
:0A089600D9CFE6FFDACFE6FFE1CF8D
:1008A000D9FFE2CFDAFFE652F20E0001A317ABAC9C
:1008B00003D0A391ABB0A381ABB4A385ABB2A387A4
:1008C000AE50DF6EDF50E552E552E5CFDAFFE7CFFD
:0408D000D9FF12003A
:0C08D400D9CFE6FFDACFE6FFE1CFD9FF75
:1008E000E2CFDAFFE652C950DF6E9E96C69EFD0E3D
:1008F000DB50C96EC6AE02D0FF0E03D09EA6FED757
:10090000000EE552E552E5CFDAFFE7CFD9FF12003E
:10091000D9CFE6FFDACFE6FFE1CFD9FFE2CFDAFFAA
:10092000FD0EDB507F0BD56ED76AD66AF294FD0EB2
:10093000DBAE02D0F28A01D0F29AD58EE552E5CF35
:08094000DAFFE7CFD9FF120036
:08094800D9CFE6FFDACFE6FF8C
:10095000E1CFD9FFE2CFDAFFACAC04D0AC9000011C
:10096000A3B3AC80FD0EDB50AD6EE552E5CFDAFFF0
:06097000E7CFD9FF1200E1
:0A097600000EF36E00EE00F0060E16
:1009800001D81200EA6002D0EE6AFCD7F350E960A9
:060990001200EE6AFCD724
:0A09960015EE00F025EE00F0F86AFF
:1009A0000A9C44EC03F003EC00F026EC02F0FBD7C9
:0209B000120033
:0E09B20077413B6B4D6E7E437F6F5F7C3879E3
:0209C0003E1ED9
:020000040030CA
:0100010038C6
:01000200FEFF
:01000300FEFE
:010006003BBE
:00000001FF
