:040000000CEF00F011
:10000800FACF01F0FBCF02F0E9CF03F064ED01F085
:1000180068EF02F0A9D0F2EC02F020EE05F01350E0
:10002800D9261450DA22000EDE6E000EDD6E05ECC5
:1000380003F00FC015F010C016F011C017F012C071
:1000480018F013C0D9FF14C0DAFF15C0DEFF16C0C0
:10005800DEFF17C0DEFF18C0DDFFD906D90620EE87
:1000680004F01350D9261450DA22010EDF6E20EE68
:1000780005F01350D9261450DA22DF50D9EC02F0DB
:1000880080D013C0D9FF14C0DAFFDECF15F0DECF61
:1000980016F0DECF17F0DECF18F0151E161E171E4D
:1000A800181E152A000E16221722182205EC03F036
:1000B8000FC019F010C01AF011C01BF012C01CF0CC
:1000C800155019241D6E16501A201E6E17501B202D
:1000D8001F6E18501C20206E1E04E80ED8B41D1880
:1000E8001F102010D8A42AD005EC03F00FC015F07B
:1000F80010C016F011C017F012C018F013C0D9FFC5
:1001080014C0DAFF15C0DEFF16C0DEFF17C0DEFF21
:1001180018C0DDFFD906D90620EE05F01350D92600
:100128001450DA22DF50D9EC02F020EE05F013501B
:10013800D9261450DA22DE2A000EDD2220EE05F040
:100148001350D9261450DA22DE50100ADD10D8A434
:1001580018D020EE05F01350D9261450DA22000EDC
:10016800DE6E000EDD6E0DD020EE04F01350D926A1
:100178001450DA22DF50000AD8B44DD7010AD8B497
:1001880080D7120089D020EE02F01350D9261450DF
:10019800DA22020EDF6E20EE03F01350D926145037
:1001A800DA22DECF15F0DECF16F0DECF17F0DECF85
:1001B80018F0151E161E171E181E152A000E1622D8
:1001C8001722182205EC03F00FC019F010C01AF01E
:1001D80011C01BF012C01CF0155019241D6E1650CA
:1001E8001A201E6E17501B201F6E18501C20206EE0
:1001F800930E1D5C000E1E58000E1F58000E20584E
:10020800D8A041D020EE02F01350D9261450DA229B
:10021800020EDF620BD020EE02F01350D9261450E4
:10022800DA22010EDF6E1FEC03F013D020EE02F08D
:100238001350D9261450DA22010EDF620AD020EEBC
:1002480002F01350D9261450DA22020EDF6E1DEC8C
:1002580003F005EC03F00FC015F010C016F011C044
:1002680017F012C018F020EE03F01350D9261450DE
:10027800DA2215C0DEFF16C0DEFF17C0DEFF18C089
:10028800DDFFD906D90613C0D9FF14C0DAFF230E43
:10029800DE6E000EDD6E13D013C0D9FF14C0DAFF76
:1002A800DECF15F0DDCF16F01650000AD8A407D01F
:1002B8001550000AD8B467D7230AD8B46CD71200EF
:1002C8000600EACF04F0E1CF05F0E2CF06F0D9CF7F
:1002D80007F0DACF08F0F3CF09F0F4CF0AF0F6CF41
:1002E8000BF0F7CF0CF0F8CF0DF0F5CF0EF0416F13
:1002F800D8CF40F0E0CF3FF0010E3626000E37226F
:100308003822392223EC03F00EC0F5FF0DC0F8FFA8
:100318000CC0F7FF0BC0F6FF0AC0F4FF09C0F3FFDB
:1003280008C0DAFF07C0D9FF06C0E2FF05C0E1FF39
:1003380004C0EAFF03C0E9FF02C0FBFF01C0FAFFE7
:100348001100146E000EAC6E000EAB6E14B0AC88CB
:1003580014A202D0AC8CAB8C14B4AC8E14A602D010
:10036800AB8801D0AB8A14B8AC849E9814BAAB861B
:1003780014AC02D09D8A01D09D9A9E9A14AE02D0E8
:100388009D8801D09D980FC0AFFF10C011F011C01B
:1003980012F0136A1250B06EAC8AAB8E949C948E95
:1003A800ACB8ACBE01D0948C1200D388D38AD38C5D
:1003B800000E106E330E0F6E3C0EA5EC01F021EC12
:1003C80003F0CCEC02F0000E106E2D0E0F6EBDEC9B
:1003D80002F0000E276E000E266E000E106E2F0E15
:1003E8000F6E83EC02F0000E116E2D0E106E0AECEB
:1003F80002F0000E146E260E136EC6EC00F0000E0E
:10040800146E2F0E136E0EEC00F0EDD724D09EAABA
:100418002DD020EE01F01050D9261150DA22AEEC82
:1004280002F0DF6E10C0D9FF11C0DAFF010EDF6ED7
:100438001DD0ACA21BD010C0D9FF11C0DAFF000E2E
:10044800DF6E20EE01F01050D9261150DA22DF506D
:10045800FCEC02F00BD010C0D9FF11C0DAFFDF505E
:10046800000AD8B4D4D7010AD8B4E3D71200116E61
:100478003F0EC716000EC66E1150C6121050C71296
:1004880005D0C78C15D0C78CC68812D00F50000A6B
:10049800D8B4F7D7020AD8B4F6D7010AD8B4F4D733
:1004A80007D09486928A0CD094860AD0949608D065
:1004B8001150040AD8B4F5D7010AD8B4F5D7F6D73D
:1004C8009488949AC68A120000EE36F02D0EEE6AD1
:1004D800E806FDE11C0EF66E060EF76E000EF86ECD
:1004E80000EE63F010EE10F00900F5CFEEFFE550D6
:1004F800E150FAE1000EF86E0001D9EF01F020EEAC
:1005080004F00F50D9261050DA22000EDF6E0FC00B
:10051800D9FF10C0DAFFDE6ADE6ADE6ADD6A20EE25
:1005280005F00F50D9261050DA22000EDE6E000EAC
:10053800DD6E12000F6E0F507F0BD56E000ED76E5A
:10054800000ED66EF2940FAE02D0F28A01D0F29A63
:10055800D58E1200F20E3E16ABAC03D03E90ABB077
:100568003E80ABB43E84ABB23E86AECF0FF00F50A8
:1005780012000FC0D9FF10C0DAFF000EDF6E20EEA8
:1005880001F00F50D9261050DA22300EDF6E12001B
:10059800000E366E000E376E000E386E000E396E85
:1005A800F28ED20E9EEC02F01200116E1150010D67
:1005B800630EF324D96E000EF420DA6EDF50E6ECF9
:1005C80002F01200106EC9CF0FF09E96C69E10C0A2
:1005D800C9FFC6BE02D09EA6FED71200030E0F6E3C
:1005E800800E106E000E3BEC02F095908380120096
:1005F8000F6EACAC03D0AC903EB2AC800FC0ADFF78
:10060800120036C00FF037C010F038C011F039C0F2
:1006180012F0120077413B6B4D6E7E437F6F5F7C1B
:1006280038793E1E4F0EAB16AC9ACF0E9D16C69A61
:100638001200828012008290120094901200F294AC
:0206480012009E
:020000040020DA
:08000000FFFFFFFFFFFFFFFF00
:020000040030CA
:0E000000FF081E1EFF8301FF0FC00FE00F4020
:00000001FF
